{"contracts/TovoPrediction.sol":{"TovoPrediction":{"abi":[{"inputs":[],"stateMutability":"nonpayable","type":"constructor"},{"inputs":[],"name":"admin","outputs":[{"internalType":"address","name":"","type":"address"}],"stateMutability":"view","type":"function"},{"inputs":[{"internalType":"address","name":"","type":"address"}],"name":"balances","outputs":[{"internalType":"uint256","name":"","type":"uint256"}],"stateMutability":"view","type":"function"},{"inputs":[{"internalType":"string","name":"_question","type":"string"},{"internalType":"uint256","name":"_forecast","type":"uint256"},{"internalType":"uint256","name":"_endTime","type":"uint256"}],"name":"createMarket","outputs":[],"stateMutability":"nonpayable","type":"function"},{"inputs":[],"name":"deposit","outputs":[],"stateMutability":"payable","type":"function"},{"inputs":[],"name":"marketCounter","outputs":[{"internalType":"uint256","name":"","type":"uint256"}],"stateMutability":"view","type":"function"},{"inputs":[{"internalType":"uint256","name":"","type":"uint256"},{"internalType":"uint256","name":"","type":"uint256"}],"name":"marketTrades","outputs":[{"internalType":"uint256","name":"marketId","type":"uint256"},{"internalType":"address","name":"user","type":"address"},{"internalType":"bool","name":"side","type":"bool"},{"internalType":"uint256","name":"amount","type":"uint256"}],"stateMutability":"view","type":"function"},{"inputs":[{"internalType":"uint256","name":"","type":"uint256"}],"name":"markets","outputs":[{"internalType":"uint256","name":"id","type":"uint256"},{"internalType":"string","name":"question","type":"string"},{"internalType":"uint256","name":"forecast","type":"uint256"},{"internalType":"uint256","name":"endTime","type":"uint256"},{"internalType":"uint256","name":"poolYes","type":"uint256"},{"internalType":"uint256","name":"poolNo","type":"uint256"},{"internalType":"bool","name":"settled","type":"bool"},{"internalType":"bool","name":"outcomeYes","type":"bool"}],"stateMutability":"view","type":"function"},{"inputs":[{"internalType":"uint256","name":"marketId","type":"uint256"},{"internalType":"bool","name":"side","type":"bool"},{"internalType":"uint256","name":"amount","type":"uint256"}],"name":"placeBet","outputs":[],"stateMutability":"nonpayable","type":"function"},{"inputs":[{"internalType":"uint256","name":"marketId","type":"uint256"},{"internalType":"bool","name":"outcomeYes","type":"bool"}],"name":"settleMarket","outputs":[],"stateMutability":"nonpayable","type":"function"},{"inputs":[],"name":"tradeFeePercent","outputs":[{"internalType":"uint256","name":"","type":"uint256"}],"stateMutability":"view","type":"function"},{"inputs":[{"internalType":"uint256","name":"amount","type":"uint256"}],"name":"withdraw","outputs":[],"stateMutability":"nonpayable","type":"function"}],"evm":{"bytecode":{"linkReferences":{},"object":"60806040526001805534801561001457600080fd5b50600080546001600160a01b03191633179055610dfc806100366000396000f3fe60806040526004361061009c5760003560e01c806369b253e31161006457806369b253e31461018757806373b883f71461019d578063b1283e77146101bd578063cfa51b16146101f1578063d0e30db014610211578063f851a4401461021957600080fd5b80631a38cac6146100a15780631cb1de2f146100c3578063247608071461011657806327e235e31461013a5780632e1a7d4d14610167575b600080fd5b3480156100ad57600080fd5b506100c16100bc36600461099e565b610251565b005b3480156100cf57600080fd5b506100e36100de3660046109d3565b610466565b604080519485526001600160a01b0390931660208501529015159183019190915260608201526080015b60405180910390f35b34801561012257600080fd5b5061012c60025481565b60405190815260200161010d565b34801561014657600080fd5b5061012c6101553660046109f5565b60046020526000908152604090205481565b34801561017357600080fd5b506100c1610182366004610a25565b6104bd565b34801561019357600080fd5b5061012c60015481565b3480156101a957600080fd5b506100c16101b8366004610a3e565b610568565b3480156101c957600080fd5b506101dd6101d8366004610a25565b6107b2565b60405161010d989796959493929190610a6a565b3480156101fd57600080fd5b506100c161020c366004610b13565b610882565b6100c1610963565b34801561022557600080fd5b50600054610239906001600160a01b031681565b6040516001600160a01b03909116815260200161010d565b336000908152600460205260409020548111156102aa5760405162461bcd60e51b81526020600482015260126024820152714e6f7420656e6f7567682062616c616e636560701b60448201526064015b60405180910390fd5b6000838152600360208190526040909120015442106102fb5760405162461bcd60e51b815260206004820152600d60248201526c13585c9ad95d0818db1bdcd959609a1b60448201526064016102a1565b336000908152600460205260408120805483929061031a908490610bed565b90915550506001546000906064906103329084610c06565b61033c9190610c1d565b600080546001600160a01b0316815260046020526040812080549293508392909190610369908490610c3f565b909155506000905061037b8284610bed565b905083156103af57600085815260036020526040812060040180548392906103a4908490610c3f565b909155506103d69050565b600085815260036020526040812060050180548392906103d0908490610c3f565b90915550505b60008581526005602090815260408083208151608081018352988952338984019081529715159189019182526060890194855280546001818101835591855292909320975160039092029097019081559451908501805496511515600160a01b026001600160a81b03199097166001600160a01b0392909216919091179590951790945550509051600290910155565b6005602052816000526040600020818154811061048257600080fd5b60009182526020909120600390910201805460018201546002909201549093506001600160a01b0382169250600160a01b90910460ff169084565b336000908152600460205260409020548111156105135760405162461bcd60e51b8152602060048201526014602482015273496e73756666696369656e742062616c616e636560601b60448201526064016102a1565b3360009081526004602052604081208054839290610532908490610bed565b9091555050604051339082156108fc029083906000818181858888f19350505050158015610564573d6000803e3d6000fd5b5050565b6000546001600160a01b031633146105ba5760405162461bcd60e51b81526020600482015260156024820152744f6e6c792061646d696e2063616e20736574746c6560581b60448201526064016102a1565b6000828152600360205260409020600681015460ff161561060f5760405162461bcd60e51b815260206004820152600f60248201526e105b1c9958591e481cd95d1d1b1959608a1b60448201526064016102a1565b8060030154421161064e5760405162461bcd60e51b8152602060048201526009602482015268546f6f206561726c7960b81b60448201526064016102a1565b6006810180548315156101000261ffff1990911617600117905560008261067957816005015461067f565b81600401545b9050600083610692578260040154610698565b82600501545b905060005b6000868152600560205260409020548110156107aa5760008681526005602052604081208054839081106106d3576106d3610c52565b6000918252602091829020604080516080810182526003939093029091018054835260018101546001600160a01b03811694840194909452600160a01b90930460ff161515908201819052600290920154606082015291508615159003610797576000848483606001516107479190610c06565b6107519190610c1d565b90508082606001516107639190610c3f565b6020808401516001600160a01b031660009081526004909152604081208054909190610790908490610c3f565b9091555050505b50806107a281610c68565b91505061069d565b505050505050565b600360205260009081526040902080546001820180549192916107d490610c81565b80601f016020809104026020016040519081016040528092919081815260200182805461080090610c81565b801561084d5780601f106108225761010080835404028352916020019161084d565b820191906000526020600020905b81548152906001019060200180831161083057829003601f168201915b505050600284015460038501546004860154600587015460069097015495969295919450925060ff8082169161010090041688565b604080516101008101825260025480825260208083018781528385018790526060840186905260006080850181905260a0850181905260c0850181905260e08501819052928352600390915292902081518155915190919060018201906108e99082610d06565b506040820151600280830191909155606083015160038301556080830151600483015560a0830151600583015560c08301516006909201805460e09094015115156101000261ff00199315159390931661ffff199094169390931791909117909155805490600061095983610c68565b9190505550505050565b3360009081526004602052604081208054349290610982908490610c3f565b9091555050565b8035801515811461099957600080fd5b919050565b6000806000606084860312156109b357600080fd5b833592506109c360208501610989565b9150604084013590509250925092565b600080604083850312156109e657600080fd5b50508035926020909101359150565b600060208284031215610a0757600080fd5b81356001600160a01b0381168114610a1e57600080fd5b9392505050565b600060208284031215610a3757600080fd5b5035919050565b60008060408385031215610a5157600080fd5b82359150610a6160208401610989565b90509250929050565b60006101008a8352602081818501528a518083860152600092505b80831015610aa4578b8301820151858401610120015291810191610a85565b6101209250600083828701015282601f19601f83011686010193505050508760408301528660608301528560808301528460a0830152610ae860c083018515159052565b82151560e08301529998505050505050505050565b634e487b7160e01b600052604160045260246000fd5b600080600060608486031215610b2857600080fd5b833567ffffffffffffffff80821115610b4057600080fd5b818601915086601f830112610b5457600080fd5b813581811115610b6657610b66610afd565b604051601f8201601f19908116603f01168101908382118183101715610b8e57610b8e610afd565b81604052828152896020848701011115610ba757600080fd5b82602086016020830137600060208483010152809750505050505060208401359150604084013590509250925092565b634e487b7160e01b600052601160045260246000fd5b81810381811115610c0057610c00610bd7565b92915050565b8082028115828204841417610c0057610c00610bd7565b600082610c3a57634e487b7160e01b600052601260045260246000fd5b500490565b80820180821115610c0057610c00610bd7565b634e487b7160e01b600052603260045260246000fd5b600060018201610c7a57610c7a610bd7565b5060010190565b600181811c90821680610c9557607f821691505b602082108103610cb557634e487b7160e01b600052602260045260246000fd5b50919050565b601f821115610d0157600081815260208120601f850160051c81016020861015610ce25750805b601f850160051c820191505b818110156107aa57828155600101610cee565b505050565b815167ffffffffffffffff811115610d2057610d20610afd565b610d3481610d2e8454610c81565b84610cbb565b602080601f831160018114610d695760008415610d515750858301515b600019600386901b1c1916600185901b1785556107aa565b600085815260208120601f198616915b82811015610d9857888601518255948401946001909101908401610d79565b5085821015610db65787850151600019600388901b60f8161c191681555b5050505050600190811b0190555056fea2646970667358221220a121944a93f11928f520cfd03dfdd690585b9c4fd8e3ec98cbe578904cf6266764736f6c63430008140033","opcodes":"PUSH1 0x80 PUSH1 0x40 MSTORE PUSH1 0x1 DUP1 SSTORE CALLVALUE DUP1 ISZERO PUSH2 0x14 JUMPI PUSH1 0x0 DUP1 REVERT JUMPDEST POP PUSH1 0x0 DUP1 SLOAD PUSH1 0x1 PUSH1 0x1 PUSH1 0xA0 SHL SUB NOT AND CALLER OR SWAP1 SSTORE PUSH2 0xDFC DUP1 PUSH2 0x36 PUSH1 0x0 CODECOPY PUSH1 0x0 RETURN INVALID PUSH1 0x80 PUSH1 0x40 MSTORE PUSH1 0x4 CALLDATASIZE LT PUSH2 0x9C JUMPI PUSH1 0x0 CALLDATALOAD PUSH1 0xE0 SHR DUP1 PUSH4 0x69B253E3 GT PUSH2 0x64 JUMPI DUP1 PUSH4 0x69B253E3 EQ PUSH2 0x187 JUMPI DUP1 PUSH4 0x73B883F7 EQ PUSH2 0x19D JUMPI DUP1 PUSH4 0xB1283E77 EQ PUSH2 0x1BD JUMPI DUP1 PUSH4 0xCFA51B16 EQ PUSH2 0x1F1 JUMPI DUP1 PUSH4 0xD0E30DB0 EQ PUSH2 0x211 JUMPI DUP1 PUSH4 0xF851A440 EQ PUSH2 0x219 JUMPI PUSH1 0x0 DUP1 REVERT JUMPDEST DUP1 PUSH4 0x1A38CAC6 EQ PUSH2 0xA1 JUMPI DUP1 PUSH4 0x1CB1DE2F EQ PUSH2 0xC3 JUMPI DUP1 PUSH4 0x24760807 EQ PUSH2 0x116 JUMPI DUP1 PUSH4 0x27E235E3 EQ PUSH2 0x13A JUMPI DUP1 PUSH4 0x2E1A7D4D EQ PUSH2 0x167 JUMPI JUMPDEST PUSH1 0x0 DUP1 REVERT JUMPDEST CALLVALUE DUP1 ISZERO PUSH2 0xAD JUMPI PUSH1 0x0 DUP1 REVERT JUMPDEST POP PUSH2 0xC1 PUSH2 0xBC CALLDATASIZE PUSH1 0x4 PUSH2 0x99E JUMP JUMPDEST PUSH2 0x251 JUMP JUMPDEST STOP JUMPDEST CALLVALUE DUP1 ISZERO PUSH2 0xCF JUMPI PUSH1 0x0 DUP1 REVERT JUMPDEST POP PUSH2 0xE3 PUSH2 0xDE CALLDATASIZE PUSH1 0x4 PUSH2 0x9D3 JUMP JUMPDEST PUSH2 0x466 JUMP JUMPDEST PUSH1 0x40 DUP1 MLOAD SWAP5 DUP6 MSTORE PUSH1 0x1 PUSH1 0x1 PUSH1 0xA0 SHL SUB SWAP1 SWAP4 AND PUSH1 0x20 DUP6 ADD MSTORE SWAP1 ISZERO ISZERO SWAP2 DUP4 ADD SWAP2 SWAP1 SWAP2 MSTORE PUSH1 0x60 DUP3 ADD MSTORE PUSH1 0x80 ADD JUMPDEST PUSH1 0x40 MLOAD DUP1 SWAP2 SUB SWAP1 RETURN JUMPDEST CALLVALUE DUP1 ISZERO PUSH2 0x122 JUMPI PUSH1 0x0 DUP1 REVERT JUMPDEST POP PUSH2 0x12C PUSH1 0x2 SLOAD DUP2 JUMP JUMPDEST PUSH1 0x40 MLOAD SWAP1 DUP2 MSTORE PUSH1 0x20 ADD PUSH2 0x10D JUMP JUMPDEST CALLVALUE DUP1 ISZERO PUSH2 0x146 JUMPI PUSH1 0x0 DUP1 REVERT JUMPDEST POP PUSH2 0x12C PUSH2 0x155 CALLDATASIZE PUSH1 0x4 PUSH2 0x9F5 JUMP JUMPDEST PUSH1 0x4 PUSH1 0x20 MSTORE PUSH1 0x0 SWAP1 DUP2 MSTORE PUSH1 0x40 SWAP1 KECCAK256 SLOAD DUP2 JUMP JUMPDEST CALLVALUE DUP1 ISZERO PUSH2 0x173 JUMPI PUSH1 0x0 DUP1 REVERT JUMPDEST POP PUSH2 0xC1 PUSH2 0x182 CALLDATASIZE PUSH1 0x4 PUSH2 0xA25 JUMP JUMPDEST PUSH2 0x4BD JUMP JUMPDEST CALLVALUE DUP1 ISZERO PUSH2 0x193 JUMPI PUSH1 0x0 DUP1 REVERT JUMPDEST POP PUSH2 0x12C PUSH1 0x1 SLOAD DUP2 JUMP JUMPDEST CALLVALUE DUP1 ISZERO PUSH2 0x1A9 JUMPI PUSH1 0x0 DUP1 REVERT JUMPDEST POP PUSH2 0xC1 PUSH2 0x1B8 CALLDATASIZE PUSH1 0x4 PUSH2 0xA3E JUMP JUMPDEST PUSH2 0x568 JUMP JUMPDEST CALLVALUE DUP1 ISZERO PUSH2 0x1C9 JUMPI PUSH1 0x0 DUP1 REVERT JUMPDEST POP PUSH2 0x1DD PUSH2 0x1D8 CALLDATASIZE PUSH1 0x4 PUSH2 0xA25 JUMP JUMPDEST PUSH2 0x7B2 JUMP JUMPDEST PUSH1 0x40 MLOAD PUSH2 0x10D SWAP9 SWAP8 SWAP7 SWAP6 SWAP5 SWAP4 SWAP3 SWAP2 SWAP1 PUSH2 0xA6A JUMP JUMPDEST CALLVALUE DUP1 ISZERO PUSH2 0x1FD JUMPI PUSH1 0x0 DUP1 REVERT JUMPDEST POP PUSH2 0xC1 PUSH2 0x20C CALLDATASIZE PUSH1 0x4 PUSH2 0xB13 JUMP JUMPDEST PUSH2 0x882 JUMP JUMPDEST PUSH2 0xC1 PUSH2 0x963 JUMP JUMPDEST CALLVALUE DUP1 ISZERO PUSH2 0x225 JUMPI PUSH1 0x0 DUP1 REVERT JUMPDEST POP PUSH1 0x0 SLOAD PUSH2 0x239 SWAP1 PUSH1 0x1 PUSH1 0x1 PUSH1 0xA0 SHL SUB AND DUP2 JUMP JUMPDEST PUSH1 0x40 MLOAD PUSH1 0x1 PUSH1 0x1 PUSH1 0xA0 SHL SUB SWAP1 SWAP2 AND DUP2 MSTORE PUSH1 0x20 ADD PUSH2 0x10D JUMP JUMPDEST CALLER PUSH1 0x0 SWAP1 DUP2 MSTORE PUSH1 0x4 PUSH1 0x20 MSTORE PUSH1 0x40 SWAP1 KECCAK256 SLOAD DUP2 GT ISZERO PUSH2 0x2AA JUMPI PUSH1 0x40 MLOAD PUSH3 0x461BCD PUSH1 0xE5 SHL DUP2 MSTORE PUSH1 0x20 PUSH1 0x4 DUP3 ADD MSTORE PUSH1 0x12 PUSH1 0x24 DUP3 ADD MSTORE PUSH18 0x4E6F7420656E6F7567682062616C616E6365 PUSH1 0x70 SHL PUSH1 0x44 DUP3 ADD MSTORE PUSH1 0x64 ADD JUMPDEST PUSH1 0x40 MLOAD DUP1 SWAP2 SUB SWAP1 REVERT JUMPDEST PUSH1 0x0 DUP4 DUP2 MSTORE PUSH1 0x3 PUSH1 0x20 DUP2 SWAP1 MSTORE PUSH1 0x40 SWAP1 SWAP2 KECCAK256 ADD SLOAD TIMESTAMP LT PUSH2 0x2FB JUMPI PUSH1 0x40 MLOAD PUSH3 0x461BCD PUSH1 0xE5 SHL DUP2 MSTORE PUSH1 0x20 PUSH1 0x4 DUP3 ADD MSTORE PUSH1 0xD PUSH1 0x24 DUP3 ADD MSTORE PUSH13 0x13585C9AD95D0818DB1BDCD959 PUSH1 0x9A SHL PUSH1 0x44 DUP3 ADD MSTORE PUSH1 0x64 ADD PUSH2 0x2A1 JUMP JUMPDEST CALLER PUSH1 0x0 SWAP1 DUP2 MSTORE PUSH1 0x4 PUSH1 0x20 MSTORE PUSH1 0x40 DUP2 KECCAK256 DUP1 SLOAD DUP4 SWAP3 SWAP1 PUSH2 0x31A SWAP1 DUP5 SWAP1 PUSH2 0xBED JUMP JUMPDEST SWAP1 SWAP2 SSTORE POP POP PUSH1 0x1 SLOAD PUSH1 0x0 SWAP1 PUSH1 0x64 SWAP1 PUSH2 0x332 SWAP1 DUP5 PUSH2 0xC06 JUMP JUMPDEST PUSH2 0x33C SWAP2 SWAP1 PUSH2 0xC1D JUMP JUMPDEST PUSH1 0x0 DUP1 SLOAD PUSH1 0x1 PUSH1 0x1 PUSH1 0xA0 SHL SUB AND DUP2 MSTORE PUSH1 0x4 PUSH1 0x20 MSTORE PUSH1 0x40 DUP2 KECCAK256 DUP1 SLOAD SWAP3 SWAP4 POP DUP4 SWAP3 SWAP1 SWAP2 SWAP1 PUSH2 0x369 SWAP1 DUP5 SWAP1 PUSH2 0xC3F JUMP JUMPDEST SWAP1 SWAP2 SSTORE POP PUSH1 0x0 SWAP1 POP PUSH2 0x37B DUP3 DUP5 PUSH2 0xBED JUMP JUMPDEST SWAP1 POP DUP4 ISZERO PUSH2 0x3AF JUMPI PUSH1 0x0 DUP6 DUP2 MSTORE PUSH1 0x3 PUSH1 0x20 MSTORE PUSH1 0x40 DUP2 KECCAK256 PUSH1 0x4 ADD DUP1 SLOAD DUP4 SWAP3 SWAP1 PUSH2 0x3A4 SWAP1 DUP5 SWAP1 PUSH2 0xC3F JUMP JUMPDEST SWAP1 SWAP2 SSTORE POP PUSH2 0x3D6 SWAP1 POP JUMP JUMPDEST PUSH1 0x0 DUP6 DUP2 MSTORE PUSH1 0x3 PUSH1 0x20 MSTORE PUSH1 0x40 DUP2 KECCAK256 PUSH1 0x5 ADD DUP1 SLOAD DUP4 SWAP3 SWAP1 PUSH2 0x3D0 SWAP1 DUP5 SWAP1 PUSH2 0xC3F JUMP JUMPDEST SWAP1 SWAP2 SSTORE POP POP JUMPDEST PUSH1 0x0 DUP6 DUP2 MSTORE PUSH1 0x5 PUSH1 0x20 SWAP1 DUP2 MSTORE PUSH1 0x40 DUP1 DUP4 KECCAK256 DUP2 MLOAD PUSH1 0x80 DUP2 ADD DUP4 MSTORE SWAP9 DUP10 MSTORE CALLER DUP10 DUP5 ADD SWAP1 DUP2 MSTORE SWAP8 ISZERO ISZERO SWAP2 DUP10 ADD SWAP2 DUP3 MSTORE PUSH1 0x60 DUP10 ADD SWAP5 DUP6 MSTORE DUP1 SLOAD PUSH1 0x1 DUP2 DUP2 ADD DUP4 SSTORE SWAP2 DUP6 MSTORE SWAP3 SWAP1 SWAP4 KECCAK256 SWAP8 MLOAD PUSH1 0x3 SWAP1 SWAP3 MUL SWAP1 SWAP8 ADD SWAP1 DUP2 SSTORE SWAP5 MLOAD SWAP1 DUP6 ADD DUP1 SLOAD SWAP7 MLOAD ISZERO ISZERO PUSH1 0x1 PUSH1 0xA0 SHL MUL PUSH1 0x1 PUSH1 0x1 PUSH1 0xA8 SHL SUB NOT SWAP1 SWAP8 AND PUSH1 0x1 PUSH1 0x1 PUSH1 0xA0 SHL SUB SWAP3 SWAP1 SWAP3 AND SWAP2 SWAP1 SWAP2 OR SWAP6 SWAP1 SWAP6 OR SWAP1 SWAP5 SSTORE POP POP SWAP1 MLOAD PUSH1 0x2 SWAP1 SWAP2 ADD SSTORE JUMP JUMPDEST PUSH1 0x5 PUSH1 0x20 MSTORE DUP2 PUSH1 0x0 MSTORE PUSH1 0x40 PUSH1 0x0 KECCAK256 DUP2 DUP2 SLOAD DUP2 LT PUSH2 0x482 JUMPI PUSH1 0x0 DUP1 REVERT JUMPDEST PUSH1 0x0 SWAP2 DUP3 MSTORE PUSH1 0x20 SWAP1 SWAP2 KECCAK256 PUSH1 0x3 SWAP1 SWAP2 MUL ADD DUP1 SLOAD PUSH1 0x1 DUP3 ADD SLOAD PUSH1 0x2 SWAP1 SWAP3 ADD SLOAD SWAP1 SWAP4 POP PUSH1 0x1 PUSH1 0x1 PUSH1 0xA0 SHL SUB DUP3 AND SWAP3 POP PUSH1 0x1 PUSH1 0xA0 SHL SWAP1 SWAP2 DIV PUSH1 0xFF AND SWAP1 DUP5 JUMP JUMPDEST CALLER PUSH1 0x0 SWAP1 DUP2 MSTORE PUSH1 0x4 PUSH1 0x20 MSTORE PUSH1 0x40 SWAP1 KECCAK256 SLOAD DUP2 GT ISZERO PUSH2 0x513 JUMPI PUSH1 0x40 MLOAD PUSH3 0x461BCD PUSH1 0xE5 SHL DUP2 MSTORE PUSH1 0x20 PUSH1 0x4 DUP3 ADD MSTORE PUSH1 0x14 PUSH1 0x24 DUP3 ADD MSTORE PUSH20 0x496E73756666696369656E742062616C616E6365 PUSH1 0x60 SHL PUSH1 0x44 DUP3 ADD MSTORE PUSH1 0x64 ADD PUSH2 0x2A1 JUMP JUMPDEST CALLER PUSH1 0x0 SWAP1 DUP2 MSTORE PUSH1 0x4 PUSH1 0x20 MSTORE PUSH1 0x40 DUP2 KECCAK256 DUP1 SLOAD DUP4 SWAP3 SWAP1 PUSH2 0x532 SWAP1 DUP5 SWAP1 PUSH2 0xBED JUMP JUMPDEST SWAP1 SWAP2 SSTORE POP POP PUSH1 0x40 MLOAD CALLER SWAP1 DUP3 ISZERO PUSH2 0x8FC MUL SWAP1 DUP4 SWAP1 PUSH1 0x0 DUP2 DUP2 DUP2 DUP6 DUP9 DUP9 CALL SWAP4 POP POP POP POP ISZERO DUP1 ISZERO PUSH2 0x564 JUMPI RETURNDATASIZE PUSH1 0x0 DUP1 RETURNDATACOPY RETURNDATASIZE PUSH1 0x0 REVERT JUMPDEST POP POP JUMP JUMPDEST PUSH1 0x0 SLOAD PUSH1 0x1 PUSH1 0x1 PUSH1 0xA0 SHL SUB AND CALLER EQ PUSH2 0x5BA JUMPI PUSH1 0x40 MLOAD PUSH3 0x461BCD PUSH1 0xE5 SHL DUP2 MSTORE PUSH1 0x20 PUSH1 0x4 DUP3 ADD MSTORE PUSH1 0x15 PUSH1 0x24 DUP3 ADD MSTORE PUSH21 0x4F6E6C792061646D696E2063616E20736574746C65 PUSH1 0x58 SHL PUSH1 0x44 DUP3 ADD MSTORE PUSH1 0x64 ADD PUSH2 0x2A1 JUMP JUMPDEST PUSH1 0x0 DUP3 DUP2 MSTORE PUSH1 0x3 PUSH1 0x20 MSTORE PUSH1 0x40 SWAP1 KECCAK256 PUSH1 0x6 DUP2 ADD SLOAD PUSH1 0xFF AND ISZERO PUSH2 0x60F JUMPI PUSH1 0x40 MLOAD PUSH3 0x461BCD PUSH1 0xE5 SHL DUP2 MSTORE PUSH1 0x20 PUSH1 0x4 DUP3 ADD MSTORE PUSH1 0xF PUSH1 0x24 DUP3 ADD MSTORE PUSH15 0x105B1C9958591E481CD95D1D1B1959 PUSH1 0x8A SHL PUSH1 0x44 DUP3 ADD MSTORE PUSH1 0x64 ADD PUSH2 0x2A1 JUMP JUMPDEST DUP1 PUSH1 0x3 ADD SLOAD TIMESTAMP GT PUSH2 0x64E JUMPI PUSH1 0x40 MLOAD PUSH3 0x461BCD PUSH1 0xE5 SHL DUP2 MSTORE PUSH1 0x20 PUSH1 0x4 DUP3 ADD MSTORE PUSH1 0x9 PUSH1 0x24 DUP3 ADD MSTORE PUSH9 0x546F6F206561726C79 PUSH1 0xB8 SHL PUSH1 0x44 DUP3 ADD MSTORE PUSH1 0x64 ADD PUSH2 0x2A1 JUMP JUMPDEST PUSH1 0x6 DUP2 ADD DUP1 SLOAD DUP4 ISZERO ISZERO PUSH2 0x100 MUL PUSH2 0xFFFF NOT SWAP1 SWAP2 AND OR PUSH1 0x1 OR SWAP1 SSTORE PUSH1 0x0 DUP3 PUSH2 0x679 JUMPI DUP2 PUSH1 0x5 ADD SLOAD PUSH2 0x67F JUMP JUMPDEST DUP2 PUSH1 0x4 ADD SLOAD JUMPDEST SWAP1 POP PUSH1 0x0 DUP4 PUSH2 0x692 JUMPI DUP3 PUSH1 0x4 ADD SLOAD PUSH2 0x698 JUMP JUMPDEST DUP3 PUSH1 0x5 ADD SLOAD JUMPDEST SWAP1 POP PUSH1 0x0 JUMPDEST PUSH1 0x0 DUP7 DUP2 MSTORE PUSH1 0x5 PUSH1 0x20 MSTORE PUSH1 0x40 SWAP1 KECCAK256 SLOAD DUP2 LT ISZERO PUSH2 0x7AA JUMPI PUSH1 0x0 DUP7 DUP2 MSTORE PUSH1 0x5 PUSH1 0x20 MSTORE PUSH1 0x40 DUP2 KECCAK256 DUP1 SLOAD DUP4 SWAP1 DUP2 LT PUSH2 0x6D3 JUMPI PUSH2 0x6D3 PUSH2 0xC52 JUMP JUMPDEST PUSH1 0x0 SWAP2 DUP3 MSTORE PUSH1 0x20 SWAP2 DUP3 SWAP1 KECCAK256 PUSH1 0x40 DUP1 MLOAD PUSH1 0x80 DUP2 ADD DUP3 MSTORE PUSH1 0x3 SWAP4 SWAP1 SWAP4 MUL SWAP1 SWAP2 ADD DUP1 SLOAD DUP4 MSTORE PUSH1 0x1 DUP2 ADD SLOAD PUSH1 0x1 PUSH1 0x1 PUSH1 0xA0 SHL SUB DUP2 AND SWAP5 DUP5 ADD SWAP5 SWAP1 SWAP5 MSTORE PUSH1 0x1 PUSH1 0xA0 SHL SWAP1 SWAP4 DIV PUSH1 0xFF AND ISZERO ISZERO SWAP1 DUP3 ADD DUP2 SWAP1 MSTORE PUSH1 0x2 SWAP1 SWAP3 ADD SLOAD PUSH1 0x60 DUP3 ADD MSTORE SWAP2 POP DUP7 ISZERO ISZERO SWAP1 SUB PUSH2 0x797 JUMPI PUSH1 0x0 DUP5 DUP5 DUP4 PUSH1 0x60 ADD MLOAD PUSH2 0x747 SWAP2 SWAP1 PUSH2 0xC06 JUMP JUMPDEST PUSH2 0x751 SWAP2 SWAP1 PUSH2 0xC1D JUMP JUMPDEST SWAP1 POP DUP1 DUP3 PUSH1 0x60 ADD MLOAD PUSH2 0x763 SWAP2 SWAP1 PUSH2 0xC3F JUMP JUMPDEST PUSH1 0x20 DUP1 DUP5 ADD MLOAD PUSH1 0x1 PUSH1 0x1 PUSH1 0xA0 SHL SUB AND PUSH1 0x0 SWAP1 DUP2 MSTORE PUSH1 0x4 SWAP1 SWAP2 MSTORE PUSH1 0x40 DUP2 KECCAK256 DUP1 SLOAD SWAP1 SWAP2 SWAP1 PUSH2 0x790 SWAP1 DUP5 SWAP1 PUSH2 0xC3F JUMP JUMPDEST SWAP1 SWAP2 SSTORE POP POP POP JUMPDEST POP DUP1 PUSH2 0x7A2 DUP2 PUSH2 0xC68 JUMP JUMPDEST SWAP2 POP POP PUSH2 0x69D JUMP JUMPDEST POP POP POP POP POP POP JUMP JUMPDEST PUSH1 0x3 PUSH1 0x20 MSTORE PUSH1 0x0 SWAP1 DUP2 MSTORE PUSH1 0x40 SWAP1 KECCAK256 DUP1 SLOAD PUSH1 0x1 DUP3 ADD DUP1 SLOAD SWAP2 SWAP3 SWAP2 PUSH2 0x7D4 SWAP1 PUSH2 0xC81 JUMP JUMPDEST DUP1 PUSH1 0x1F ADD PUSH1 0x20 DUP1 SWAP2 DIV MUL PUSH1 0x20 ADD PUSH1 0x40 MLOAD SWAP1 DUP2 ADD PUSH1 0x40 MSTORE DUP1 SWAP3 SWAP2 SWAP1 DUP2 DUP2 MSTORE PUSH1 0x20 ADD DUP3 DUP1 SLOAD PUSH2 0x800 SWAP1 PUSH2 0xC81 JUMP JUMPDEST DUP1 ISZERO PUSH2 0x84D JUMPI DUP1 PUSH1 0x1F LT PUSH2 0x822 JUMPI PUSH2 0x100 DUP1 DUP4 SLOAD DIV MUL DUP4 MSTORE SWAP2 PUSH1 0x20 ADD SWAP2 PUSH2 0x84D JUMP JUMPDEST DUP3 ADD SWAP2 SWAP1 PUSH1 0x0 MSTORE PUSH1 0x20 PUSH1 0x0 KECCAK256 SWAP1 JUMPDEST DUP2 SLOAD DUP2 MSTORE SWAP1 PUSH1 0x1 ADD SWAP1 PUSH1 0x20 ADD DUP1 DUP4 GT PUSH2 0x830 JUMPI DUP3 SWAP1 SUB PUSH1 0x1F AND DUP3 ADD SWAP2 JUMPDEST POP POP POP PUSH1 0x2 DUP5 ADD SLOAD PUSH1 0x3 DUP6 ADD SLOAD PUSH1 0x4 DUP7 ADD SLOAD PUSH1 0x5 DUP8 ADD SLOAD PUSH1 0x6 SWAP1 SWAP8 ADD SLOAD SWAP6 SWAP7 SWAP3 SWAP6 SWAP2 SWAP5 POP SWAP3 POP PUSH1 0xFF DUP1 DUP3 AND SWAP2 PUSH2 0x100 SWAP1 DIV AND DUP9 JUMP JUMPDEST PUSH1 0x40 DUP1 MLOAD PUSH2 0x100 DUP2 ADD DUP3 MSTORE PUSH1 0x2 SLOAD DUP1 DUP3 MSTORE PUSH1 0x20 DUP1 DUP4 ADD DUP8 DUP2 MSTORE DUP4 DUP6 ADD DUP8 SWAP1 MSTORE PUSH1 0x60 DUP5 ADD DUP7 SWAP1 MSTORE PUSH1 0x0 PUSH1 0x80 DUP6 ADD DUP2 SWAP1 MSTORE PUSH1 0xA0 DUP6 ADD DUP2 SWAP1 MSTORE PUSH1 0xC0 DUP6 ADD DUP2 SWAP1 MSTORE PUSH1 0xE0 DUP6 ADD DUP2 SWAP1 MSTORE SWAP3 DUP4 MSTORE PUSH1 0x3 SWAP1 SWAP2 MSTORE SWAP3 SWAP1 KECCAK256 DUP2 MLOAD DUP2 SSTORE SWAP2 MLOAD SWAP1 SWAP2 SWAP1 PUSH1 0x1 DUP3 ADD SWAP1 PUSH2 0x8E9 SWAP1 DUP3 PUSH2 0xD06 JUMP JUMPDEST POP PUSH1 0x40 DUP3 ADD MLOAD PUSH1 0x2 DUP1 DUP4 ADD SWAP2 SWAP1 SWAP2 SSTORE PUSH1 0x60 DUP4 ADD MLOAD PUSH1 0x3 DUP4 ADD SSTORE PUSH1 0x80 DUP4 ADD MLOAD PUSH1 0x4 DUP4 ADD SSTORE PUSH1 0xA0 DUP4 ADD MLOAD PUSH1 0x5 DUP4 ADD SSTORE PUSH1 0xC0 DUP4 ADD MLOAD PUSH1 0x6 SWAP1 SWAP3 ADD DUP1 SLOAD PUSH1 0xE0 SWAP1 SWAP5 ADD MLOAD ISZERO ISZERO PUSH2 0x100 MUL PUSH2 0xFF00 NOT SWAP4 ISZERO ISZERO SWAP4 SWAP1 SWAP4 AND PUSH2 0xFFFF NOT SWAP1 SWAP5 AND SWAP4 SWAP1 SWAP4 OR SWAP2 SWAP1 SWAP2 OR SWAP1 SWAP2 SSTORE DUP1 SLOAD SWAP1 PUSH1 0x0 PUSH2 0x959 DUP4 PUSH2 0xC68 JUMP JUMPDEST SWAP2 SWAP1 POP SSTORE POP POP POP POP JUMP JUMPDEST CALLER PUSH1 0x0 SWAP1 DUP2 MSTORE PUSH1 0x4 PUSH1 0x20 MSTORE PUSH1 0x40 DUP2 KECCAK256 DUP1 SLOAD CALLVALUE SWAP3 SWAP1 PUSH2 0x982 SWAP1 DUP5 SWAP1 PUSH2 0xC3F JUMP JUMPDEST SWAP1 SWAP2 SSTORE POP POP JUMP JUMPDEST DUP1 CALLDATALOAD DUP1 ISZERO ISZERO DUP2 EQ PUSH2 0x999 JUMPI PUSH1 0x0 DUP1 REVERT JUMPDEST SWAP2 SWAP1 POP JUMP JUMPDEST PUSH1 0x0 DUP1 PUSH1 0x0 PUSH1 0x60 DUP5 DUP7 SUB SLT ISZERO PUSH2 0x9B3 JUMPI PUSH1 0x0 DUP1 REVERT JUMPDEST DUP4 CALLDATALOAD SWAP3 POP PUSH2 0x9C3 PUSH1 0x20 DUP6 ADD PUSH2 0x989 JUMP JUMPDEST SWAP2 POP PUSH1 0x40 DUP5 ADD CALLDATALOAD SWAP1 POP SWAP3 POP SWAP3 POP SWAP3 JUMP JUMPDEST PUSH1 0x0 DUP1 PUSH1 0x40 DUP4 DUP6 SUB SLT ISZERO PUSH2 0x9E6 JUMPI PUSH1 0x0 DUP1 REVERT JUMPDEST POP POP DUP1 CALLDATALOAD SWAP3 PUSH1 0x20 SWAP1 SWAP2 ADD CALLDATALOAD SWAP2 POP JUMP JUMPDEST PUSH1 0x0 PUSH1 0x20 DUP3 DUP5 SUB SLT ISZERO PUSH2 0xA07 JUMPI PUSH1 0x0 DUP1 REVERT JUMPDEST DUP2 CALLDATALOAD PUSH1 0x1 PUSH1 0x1 PUSH1 0xA0 SHL SUB DUP2 AND DUP2 EQ PUSH2 0xA1E JUMPI PUSH1 0x0 DUP1 REVERT JUMPDEST SWAP4 SWAP3 POP POP POP JUMP JUMPDEST PUSH1 0x0 PUSH1 0x20 DUP3 DUP5 SUB SLT ISZERO PUSH2 0xA37 JUMPI PUSH1 0x0 DUP1 REVERT JUMPDEST POP CALLDATALOAD SWAP2 SWAP1 POP JUMP JUMPDEST PUSH1 0x0 DUP1 PUSH1 0x40 DUP4 DUP6 SUB SLT ISZERO PUSH2 0xA51 JUMPI PUSH1 0x0 DUP1 REVERT JUMPDEST DUP3 CALLDATALOAD SWAP2 POP PUSH2 0xA61 PUSH1 0x20 DUP5 ADD PUSH2 0x989 JUMP JUMPDEST SWAP1 POP SWAP3 POP SWAP3 SWAP1 POP JUMP JUMPDEST PUSH1 0x0 PUSH2 0x100 DUP11 DUP4 MSTORE PUSH1 0x20 DUP2 DUP2 DUP6 ADD MSTORE DUP11 MLOAD DUP1 DUP4 DUP7 ADD MSTORE PUSH1 0x0 SWAP3 POP JUMPDEST DUP1 DUP4 LT ISZERO PUSH2 0xAA4 JUMPI DUP12 DUP4 ADD DUP3 ADD MLOAD DUP6 DUP5 ADD PUSH2 0x120 ADD MSTORE SWAP2 DUP2 ADD SWAP2 PUSH2 0xA85 JUMP JUMPDEST PUSH2 0x120 SWAP3 POP PUSH1 0x0 DUP4 DUP3 DUP8 ADD ADD MSTORE DUP3 PUSH1 0x1F NOT PUSH1 0x1F DUP4 ADD AND DUP7 ADD ADD SWAP4 POP POP POP POP DUP8 PUSH1 0x40 DUP4 ADD MSTORE DUP7 PUSH1 0x60 DUP4 ADD MSTORE DUP6 PUSH1 0x80 DUP4 ADD MSTORE DUP5 PUSH1 0xA0 DUP4 ADD MSTORE PUSH2 0xAE8 PUSH1 0xC0 DUP4 ADD DUP6 ISZERO ISZERO SWAP1 MSTORE JUMP JUMPDEST DUP3 ISZERO ISZERO PUSH1 0xE0 DUP4 ADD MSTORE SWAP10 SWAP9 POP POP POP POP POP POP POP POP POP JUMP JUMPDEST PUSH4 0x4E487B71 PUSH1 0xE0 SHL PUSH1 0x0 MSTORE PUSH1 0x41 PUSH1 0x4 MSTORE PUSH1 0x24 PUSH1 0x0 REVERT JUMPDEST PUSH1 0x0 DUP1 PUSH1 0x0 PUSH1 0x60 DUP5 DUP7 SUB SLT ISZERO PUSH2 0xB28 JUMPI PUSH1 0x0 DUP1 REVERT JUMPDEST DUP4 CALLDATALOAD PUSH8 0xFFFFFFFFFFFFFFFF DUP1 DUP3 GT ISZERO PUSH2 0xB40 JUMPI PUSH1 0x0 DUP1 REVERT JUMPDEST DUP2 DUP7 ADD SWAP2 POP DUP7 PUSH1 0x1F DUP4 ADD SLT PUSH2 0xB54 JUMPI PUSH1 0x0 DUP1 REVERT JUMPDEST DUP2 CALLDATALOAD DUP2 DUP2 GT ISZERO PUSH2 0xB66 JUMPI PUSH2 0xB66 PUSH2 0xAFD JUMP JUMPDEST PUSH1 0x40 MLOAD PUSH1 0x1F DUP3 ADD PUSH1 0x1F NOT SWAP1 DUP2 AND PUSH1 0x3F ADD AND DUP2 ADD SWAP1 DUP4 DUP3 GT DUP2 DUP4 LT OR ISZERO PUSH2 0xB8E JUMPI PUSH2 0xB8E PUSH2 0xAFD JUMP JUMPDEST DUP2 PUSH1 0x40 MSTORE DUP3 DUP2 MSTORE DUP10 PUSH1 0x20 DUP5 DUP8 ADD ADD GT ISZERO PUSH2 0xBA7 JUMPI PUSH1 0x0 DUP1 REVERT JUMPDEST DUP3 PUSH1 0x20 DUP7 ADD PUSH1 0x20 DUP4 ADD CALLDATACOPY PUSH1 0x0 PUSH1 0x20 DUP5 DUP4 ADD ADD MSTORE DUP1 SWAP8 POP POP POP POP POP POP PUSH1 0x20 DUP5 ADD CALLDATALOAD SWAP2 POP PUSH1 0x40 DUP5 ADD CALLDATALOAD SWAP1 POP SWAP3 POP SWAP3 POP SWAP3 JUMP JUMPDEST PUSH4 0x4E487B71 PUSH1 0xE0 SHL PUSH1 0x0 MSTORE PUSH1 0x11 PUSH1 0x4 MSTORE PUSH1 0x24 PUSH1 0x0 REVERT JUMPDEST DUP2 DUP2 SUB DUP2 DUP2 GT ISZERO PUSH2 0xC00 JUMPI PUSH2 0xC00 PUSH2 0xBD7 JUMP JUMPDEST SWAP3 SWAP2 POP POP JUMP JUMPDEST DUP1 DUP3 MUL DUP2 ISZERO DUP3 DUP3 DIV DUP5 EQ OR PUSH2 0xC00 JUMPI PUSH2 0xC00 PUSH2 0xBD7 JUMP JUMPDEST PUSH1 0x0 DUP3 PUSH2 0xC3A JUMPI PUSH4 0x4E487B71 PUSH1 0xE0 SHL PUSH1 0x0 MSTORE PUSH1 0x12 PUSH1 0x4 MSTORE PUSH1 0x24 PUSH1 0x0 REVERT JUMPDEST POP DIV SWAP1 JUMP JUMPDEST DUP1 DUP3 ADD DUP1 DUP3 GT ISZERO PUSH2 0xC00 JUMPI PUSH2 0xC00 PUSH2 0xBD7 JUMP JUMPDEST PUSH4 0x4E487B71 PUSH1 0xE0 SHL PUSH1 0x0 MSTORE PUSH1 0x32 PUSH1 0x4 MSTORE PUSH1 0x24 PUSH1 0x0 REVERT JUMPDEST PUSH1 0x0 PUSH1 0x1 DUP3 ADD PUSH2 0xC7A JUMPI PUSH2 0xC7A PUSH2 0xBD7 JUMP JUMPDEST POP PUSH1 0x1 ADD SWAP1 JUMP JUMPDEST PUSH1 0x1 DUP2 DUP2 SHR SWAP1 DUP3 AND DUP1 PUSH2 0xC95 JUMPI PUSH1 0x7F DUP3 AND SWAP2 POP JUMPDEST PUSH1 0x20 DUP3 LT DUP2 SUB PUSH2 0xCB5 JUMPI PUSH4 0x4E487B71 PUSH1 0xE0 SHL PUSH1 0x0 MSTORE PUSH1 0x22 PUSH1 0x4 MSTORE PUSH1 0x24 PUSH1 0x0 REVERT JUMPDEST POP SWAP2 SWAP1 POP JUMP JUMPDEST PUSH1 0x1F DUP3 GT ISZERO PUSH2 0xD01 JUMPI PUSH1 0x0 DUP2 DUP2 MSTORE PUSH1 0x20 DUP2 KECCAK256 PUSH1 0x1F DUP6 ADD PUSH1 0x5 SHR DUP2 ADD PUSH1 0x20 DUP7 LT ISZERO PUSH2 0xCE2 JUMPI POP DUP1 JUMPDEST PUSH1 0x1F DUP6 ADD PUSH1 0x5 SHR DUP3 ADD SWAP2 POP JUMPDEST DUP2 DUP2 LT ISZERO PUSH2 0x7AA JUMPI DUP3 DUP2 SSTORE PUSH1 0x1 ADD PUSH2 0xCEE JUMP JUMPDEST POP POP POP JUMP JUMPDEST DUP2 MLOAD PUSH8 0xFFFFFFFFFFFFFFFF DUP2 GT ISZERO PUSH2 0xD20 JUMPI PUSH2 0xD20 PUSH2 0xAFD JUMP JUMPDEST PUSH2 0xD34 DUP2 PUSH2 0xD2E DUP5 SLOAD PUSH2 0xC81 JUMP JUMPDEST DUP5 PUSH2 0xCBB JUMP JUMPDEST PUSH1 0x20 DUP1 PUSH1 0x1F DUP4 GT PUSH1 0x1 DUP2 EQ PUSH2 0xD69 JUMPI PUSH1 0x0 DUP5 ISZERO PUSH2 0xD51 JUMPI POP DUP6 DUP4 ADD MLOAD JUMPDEST PUSH1 0x0 NOT PUSH1 0x3 DUP7 SWAP1 SHL SHR NOT AND PUSH1 0x1 DUP6 SWAP1 SHL OR DUP6 SSTORE PUSH2 0x7AA JUMP JUMPDEST PUSH1 0x0 DUP6 DUP2 MSTORE PUSH1 0x20 DUP2 KECCAK256 PUSH1 0x1F NOT DUP7 AND SWAP2 JUMPDEST DUP3 DUP2 LT ISZERO PUSH2 0xD98 JUMPI DUP9 DUP7 ADD MLOAD DUP3 SSTORE SWAP5 DUP5 ADD SWAP5 PUSH1 0x1 SWAP1 SWAP2 ADD SWAP1 DUP5 ADD PUSH2 0xD79 JUMP JUMPDEST POP DUP6 DUP3 LT ISZERO PUSH2 0xDB6 JUMPI DUP8 DUP6 ADD MLOAD PUSH1 0x0 NOT PUSH1 0x3 DUP9 SWAP1 SHL PUSH1 0xF8 AND SHR NOT AND DUP2 SSTORE JUMPDEST POP POP POP POP POP PUSH1 0x1 SWAP1 DUP2 SHL ADD SWAP1 SSTORE POP JUMP INVALID LOG2 PUSH5 0x6970667358 0x22 SLT KECCAK256 LOG1 0x21 SWAP5 0x4A SWAP4 CALL NOT 0x28 CREATE2 KECCAK256 0xCF 0xD0 RETURNDATASIZE REVERT 0xD6 SWAP1 PC JUMPDEST SWAP13 0x4F 0xD8 0xE3 0xEC SWAP9 0xCB 0xE5 PUSH25 0x904CF6266764736F6C63430008140033000000000000000000 "},"methodIdentifiers":{"admin()":"f851a440","balances(address)":"27e235e3","createMarket(string,uint256,uint256)":"cfa51b16","deposit()":"d0e30db0","marketCounter()":"24760807","marketTrades(uint256,uint256)":"1cb1de2f","markets(uint256)":"b1283e77","placeBet(uint256,bool,uint256)":"1a38cac6","settleMarket(uint256,bool)":"73b883f7","tradeFeePercent()":"69b253e3","withdraw(uint256)":"2e1a7d4d"}}}}}