{
  "_format": "hh-sol-artifact-1",
  "contractName": "TovoPrediction",
  "sourceName": "contracts/TovoPrediction.sol",
  "abi": [
    {
      "inputs": [],
      "stateMutability": "nonpayable",
      "type": "constructor"
    },
    {
      "inputs": [],
      "name": "admin",
      "outputs": [
        {
          "internalType": "address",
          "name": "",
          "type": "address"
        }
      ],
      "stateMutability": "view",
      "type": "function"
    },
    {
      "inputs": [
        {
          "internalType": "address",
          "name": "",
          "type": "address"
        }
      ],
      "name": "balances",
      "outputs": [
        {
          "internalType": "uint256",
          "name": "",
          "type": "uint256"
        }
      ],
      "stateMutability": "view",
      "type": "function"
    },
    {
      "inputs": [
        {
          "internalType": "string",
          "name": "_question",
          "type": "string"
        },
        {
          "internalType": "uint256",
          "name": "_forecast",
          "type": "uint256"
        },
        {
          "internalType": "uint256",
          "name": "_endTime",
          "type": "uint256"
        }
      ],
      "name": "createMarket",
      "outputs": [],
      "stateMutability": "nonpayable",
      "type": "function"
    },
    {
      "inputs": [],
      "name": "deposit",
      "outputs": [],
      "stateMutability": "payable",
      "type": "function"
    },
    {
      "inputs": [],
      "name": "marketCounter",
      "outputs": [
        {
          "internalType": "uint256",
          "name": "",
          "type": "uint256"
        }
      ],
      "stateMutability": "view",
      "type": "function"
    },
    {
      "inputs": [
        {
          "internalType": "uint256",
          "name": "",
          "type": "uint256"
        },
        {
          "internalType": "uint256",
          "name": "",
          "type": "uint256"
        }
      ],
      "name": "marketTrades",
      "outputs": [
        {
          "internalType": "uint256",
          "name": "marketId",
          "type": "uint256"
        },
        {
          "internalType": "address",
          "name": "user",
          "type": "address"
        },
        {
          "internalType": "bool",
          "name": "side",
          "type": "bool"
        },
        {
          "internalType": "uint256",
          "name": "amount",
          "type": "uint256"
        }
      ],
      "stateMutability": "view",
      "type": "function"
    },
    {
      "inputs": [
        {
          "internalType": "uint256",
          "name": "",
          "type": "uint256"
        }
      ],
      "name": "markets",
      "outputs": [
        {
          "internalType": "uint256",
          "name": "id",
          "type": "uint256"
        },
        {
          "internalType": "string",
          "name": "question",
          "type": "string"
        },
        {
          "internalType": "uint256",
          "name": "forecast",
          "type": "uint256"
        },
        {
          "internalType": "uint256",
          "name": "endTime",
          "type": "uint256"
        },
        {
          "internalType": "uint256",
          "name": "poolYes",
          "type": "uint256"
        },
        {
          "internalType": "uint256",
          "name": "poolNo",
          "type": "uint256"
        },
        {
          "internalType": "bool",
          "name": "settled",
          "type": "bool"
        },
        {
          "internalType": "bool",
          "name": "outcomeYes",
          "type": "bool"
        }
      ],
      "stateMutability": "view",
      "type": "function"
    },
    {
      "inputs": [
        {
          "internalType": "uint256",
          "name": "marketId",
          "type": "uint256"
        },
        {
          "internalType": "bool",
          "name": "side",
          "type": "bool"
        },
        {
          "internalType": "uint256",
          "name": "amount",
          "type": "uint256"
        }
      ],
      "name": "placeBet",
      "outputs": [],
      "stateMutability": "nonpayable",
      "type": "function"
    },
    {
      "inputs": [
        {
          "internalType": "uint256",
          "name": "marketId",
          "type": "uint256"
        },
        {
          "internalType": "bool",
          "name": "outcomeYes",
          "type": "bool"
        }
      ],
      "name": "settleMarket",
      "outputs": [],
      "stateMutability": "nonpayable",
      "type": "function"
    },
    {
      "inputs": [],
      "name": "tradeFeePercent",
      "outputs": [
        {
          "internalType": "uint256",
          "name": "",
          "type": "uint256"
        }
      ],
      "stateMutability": "view",
      "type": "function"
    },
    {
      "inputs": [
        {
          "internalType": "uint256",
          "name": "amount",
          "type": "uint256"
        }
      ],
      "name": "withdraw",
      "outputs": [],
      "stateMutability": "nonpayable",
      "type": "function"
    }
  ],
  "bytecode": "0x60806040526001805534801561001457600080fd5b50600080546001600160a01b03191633179055610dfc806100366000396000f3fe60806040526004361061009c5760003560e01c806369b253e31161006457806369b253e31461018757806373b883f71461019d578063b1283e77146101bd578063cfa51b16146101f1578063d0e30db014610211578063f851a4401461021957600080fd5b80631a38cac6146100a15780631cb1de2f146100c3578063247608071461011657806327e235e31461013a5780632e1a7d4d14610167575b600080fd5b3480156100ad57600080fd5b506100c16100bc36600461099e565b610251565b005b3480156100cf57600080fd5b506100e36100de3660046109d3565b610466565b604080519485526001600160a01b0390931660208501529015159183019190915260608201526080015b60405180910390f35b34801561012257600080fd5b5061012c60025481565b60405190815260200161010d565b34801561014657600080fd5b5061012c6101553660046109f5565b60046020526000908152604090205481565b34801561017357600080fd5b506100c1610182366004610a25565b6104bd565b34801561019357600080fd5b5061012c60015481565b3480156101a957600080fd5b506100c16101b8366004610a3e565b610568565b3480156101c957600080fd5b506101dd6101d8366004610a25565b6107b2565b60405161010d989796959493929190610a6a565b3480156101fd57600080fd5b506100c161020c366004610b13565b610882565b6100c1610963565b34801561022557600080fd5b50600054610239906001600160a01b031681565b6040516001600160a01b03909116815260200161010d565b336000908152600460205260409020548111156102aa5760405162461bcd60e51b81526020600482015260126024820152714e6f7420656e6f7567682062616c616e636560701b60448201526064015b60405180910390fd5b6000838152600360208190526040909120015442106102fb5760405162461bcd60e51b815260206004820152600d60248201526c13585c9ad95d0818db1bdcd959609a1b60448201526064016102a1565b336000908152600460205260408120805483929061031a908490610bed565b90915550506001546000906064906103329084610c06565b61033c9190610c1d565b600080546001600160a01b0316815260046020526040812080549293508392909190610369908490610c3f565b909155506000905061037b8284610bed565b905083156103af57600085815260036020526040812060040180548392906103a4908490610c3f565b909155506103d69050565b600085815260036020526040812060050180548392906103d0908490610c3f565b90915550505b60008581526005602090815260408083208151608081018352988952338984019081529715159189019182526060890194855280546001818101835591855292909320975160039092029097019081559451908501805496511515600160a01b026001600160a81b03199097166001600160a01b0392909216919091179590951790945550509051600290910155565b6005602052816000526040600020818154811061048257600080fd5b60009182526020909120600390910201805460018201546002909201549093506001600160a01b0382169250600160a01b90910460ff169084565b336000908152600460205260409020548111156105135760405162461bcd60e51b8152602060048201526014602482015273496e73756666696369656e742062616c616e636560601b60448201526064016102a1565b3360009081526004602052604081208054839290610532908490610bed565b9091555050604051339082156108fc029083906000818181858888f19350505050158015610564573d6000803e3d6000fd5b5050565b6000546001600160a01b031633146105ba5760405162461bcd60e51b81526020600482015260156024820152744f6e6c792061646d696e2063616e20736574746c6560581b60448201526064016102a1565b6000828152600360205260409020600681015460ff161561060f5760405162461bcd60e51b815260206004820152600f60248201526e105b1c9958591e481cd95d1d1b1959608a1b60448201526064016102a1565b8060030154421161064e5760405162461bcd60e51b8152602060048201526009602482015268546f6f206561726c7960b81b60448201526064016102a1565b6006810180548315156101000261ffff1990911617600117905560008261067957816005015461067f565b81600401545b9050600083610692578260040154610698565b82600501545b905060005b6000868152600560205260409020548110156107aa5760008681526005602052604081208054839081106106d3576106d3610c52565b6000918252602091829020604080516080810182526003939093029091018054835260018101546001600160a01b03811694840194909452600160a01b90930460ff161515908201819052600290920154606082015291508615159003610797576000848483606001516107479190610c06565b6107519190610c1d565b90508082606001516107639190610c3f565b6020808401516001600160a01b031660009081526004909152604081208054909190610790908490610c3f565b9091555050505b50806107a281610c68565b91505061069d565b505050505050565b600360205260009081526040902080546001820180549192916107d490610c81565b80601f016020809104026020016040519081016040528092919081815260200182805461080090610c81565b801561084d5780601f106108225761010080835404028352916020019161084d565b820191906000526020600020905b81548152906001019060200180831161083057829003601f168201915b505050600284015460038501546004860154600587015460069097015495969295919450925060ff8082169161010090041688565b604080516101008101825260025480825260208083018781528385018790526060840186905260006080850181905260a0850181905260c0850181905260e08501819052928352600390915292902081518155915190919060018201906108e99082610d06565b506040820151600280830191909155606083015160038301556080830151600483015560a0830151600583015560c08301516006909201805460e09094015115156101000261ff00199315159390931661ffff199094169390931791909117909155805490600061095983610c68565b9190505550505050565b3360009081526004602052604081208054349290610982908490610c3f565b9091555050565b8035801515811461099957600080fd5b919050565b6000806000606084860312156109b357600080fd5b833592506109c360208501610989565b9150604084013590509250925092565b600080604083850312156109e657600080fd5b50508035926020909101359150565b600060208284031215610a0757600080fd5b81356001600160a01b0381168114610a1e57600080fd5b9392505050565b600060208284031215610a3757600080fd5b5035919050565b60008060408385031215610a5157600080fd5b82359150610a6160208401610989565b90509250929050565b60006101008a8352602081818501528a518083860152600092505b80831015610aa4578b8301820151858401610120015291810191610a85565b6101209250600083828701015282601f19601f83011686010193505050508760408301528660608301528560808301528460a0830152610ae860c083018515159052565b82151560e08301529998505050505050505050565b634e487b7160e01b600052604160045260246000fd5b600080600060608486031215610b2857600080fd5b833567ffffffffffffffff80821115610b4057600080fd5b818601915086601f830112610b5457600080fd5b813581811115610b6657610b66610afd565b604051601f8201601f19908116603f01168101908382118183101715610b8e57610b8e610afd565b81604052828152896020848701011115610ba757600080fd5b82602086016020830137600060208483010152809750505050505060208401359150604084013590509250925092565b634e487b7160e01b600052601160045260246000fd5b81810381811115610c0057610c00610bd7565b92915050565b8082028115828204841417610c0057610c00610bd7565b600082610c3a57634e487b7160e01b600052601260045260246000fd5b500490565b80820180821115610c0057610c00610bd7565b634e487b7160e01b600052603260045260246000fd5b600060018201610c7a57610c7a610bd7565b5060010190565b600181811c90821680610c9557607f821691505b602082108103610cb557634e487b7160e01b600052602260045260246000fd5b50919050565b601f821115610d0157600081815260208120601f850160051c81016020861015610ce25750805b601f850160051c820191505b818110156107aa57828155600101610cee565b505050565b815167ffffffffffffffff811115610d2057610d20610afd565b610d3481610d2e8454610c81565b84610cbb565b602080601f831160018114610d695760008415610d515750858301515b600019600386901b1c1916600185901b1785556107aa565b600085815260208120601f198616915b82811015610d9857888601518255948401946001909101908401610d79565b5085821015610db65787850151600019600388901b60f8161c191681555b5050505050600190811b0190555056fea2646970667358221220a121944a93f11928f520cfd03dfdd690585b9c4fd8e3ec98cbe578904cf6266764736f6c63430008140033",
  "linkReferences": {},
  "deployedLinkReferences": {}
}